{
  "contractName": "Voting",
  "abi": [
    {
      "inputs": [],
      "stateMutability": "nonpayable",
      "type": "constructor"
    },
    {
      "anonymous": false,
      "inputs": [
        {
          "indexed": true,
          "internalType": "address",
          "name": "previousOwner",
          "type": "address"
        },
        {
          "indexed": true,
          "internalType": "address",
          "name": "newOwner",
          "type": "address"
        }
      ],
      "name": "OwnershipTransferred",
      "type": "event"
    },
    {
      "anonymous": false,
      "inputs": [
        {
          "indexed": false,
          "internalType": "uint256",
          "name": "proposalId",
          "type": "uint256"
        }
      ],
      "name": "ProposalRegistered",
      "type": "event"
    },
    {
      "anonymous": false,
      "inputs": [
        {
          "indexed": false,
          "internalType": "address",
          "name": "voter",
          "type": "address"
        },
        {
          "indexed": false,
          "internalType": "uint256",
          "name": "proposalId",
          "type": "uint256"
        }
      ],
      "name": "Voted",
      "type": "event"
    },
    {
      "anonymous": false,
      "inputs": [
        {
          "indexed": false,
          "internalType": "address",
          "name": "voterAddress",
          "type": "address"
        }
      ],
      "name": "VoterRegistered",
      "type": "event"
    },
    {
      "anonymous": false,
      "inputs": [
        {
          "indexed": false,
          "internalType": "enum Voting.WorkflowStatus",
          "name": "previousStatus",
          "type": "uint8"
        },
        {
          "indexed": false,
          "internalType": "enum Voting.WorkflowStatus",
          "name": "newStatus",
          "type": "uint8"
        }
      ],
      "name": "WorkflowStatusChange",
      "type": "event"
    },
    {
      "inputs": [],
      "name": "owner",
      "outputs": [
        {
          "internalType": "address",
          "name": "",
          "type": "address"
        }
      ],
      "stateMutability": "view",
      "type": "function",
      "constant": true
    },
    {
      "inputs": [
        {
          "internalType": "uint256",
          "name": "",
          "type": "uint256"
        }
      ],
      "name": "proposalVoteCountEqualities",
      "outputs": [
        {
          "internalType": "uint256",
          "name": "",
          "type": "uint256"
        }
      ],
      "stateMutability": "view",
      "type": "function",
      "constant": true
    },
    {
      "inputs": [],
      "name": "renounceOwnership",
      "outputs": [],
      "stateMutability": "nonpayable",
      "type": "function"
    },
    {
      "inputs": [],
      "name": "state",
      "outputs": [
        {
          "internalType": "enum Voting.WorkflowStatus",
          "name": "",
          "type": "uint8"
        }
      ],
      "stateMutability": "view",
      "type": "function",
      "constant": true
    },
    {
      "inputs": [],
      "name": "totalVotes",
      "outputs": [
        {
          "internalType": "uint256",
          "name": "",
          "type": "uint256"
        }
      ],
      "stateMutability": "view",
      "type": "function",
      "constant": true
    },
    {
      "inputs": [
        {
          "internalType": "address",
          "name": "newOwner",
          "type": "address"
        }
      ],
      "name": "transferOwnership",
      "outputs": [],
      "stateMutability": "nonpayable",
      "type": "function"
    },
    {
      "inputs": [],
      "name": "winningProposalId",
      "outputs": [
        {
          "internalType": "uint256",
          "name": "",
          "type": "uint256"
        }
      ],
      "stateMutability": "view",
      "type": "function",
      "constant": true
    },
    {
      "inputs": [],
      "name": "getWhitelistedVoters",
      "outputs": [
        {
          "internalType": "address[]",
          "name": "",
          "type": "address[]"
        }
      ],
      "stateMutability": "view",
      "type": "function",
      "constant": true
    },
    {
      "inputs": [
        {
          "internalType": "address",
          "name": "voterAddress",
          "type": "address"
        }
      ],
      "name": "getVoterDetails",
      "outputs": [
        {
          "components": [
            {
              "internalType": "bool",
              "name": "isRegistered",
              "type": "bool"
            },
            {
              "internalType": "bool",
              "name": "hasVoted",
              "type": "bool"
            },
            {
              "internalType": "uint256",
              "name": "votedProposalId",
              "type": "uint256"
            }
          ],
          "internalType": "struct Voting.Voter",
          "name": "",
          "type": "tuple"
        }
      ],
      "stateMutability": "view",
      "type": "function",
      "constant": true
    },
    {
      "inputs": [
        {
          "internalType": "address",
          "name": "voterAddress",
          "type": "address"
        }
      ],
      "name": "getVoterVote",
      "outputs": [
        {
          "internalType": "uint256",
          "name": "",
          "type": "uint256"
        }
      ],
      "stateMutability": "view",
      "type": "function",
      "constant": true
    },
    {
      "inputs": [],
      "name": "getProposals",
      "outputs": [
        {
          "components": [
            {
              "internalType": "string",
              "name": "description",
              "type": "string"
            },
            {
              "internalType": "uint256",
              "name": "voteCount",
              "type": "uint256"
            }
          ],
          "internalType": "struct Voting.Proposal[]",
          "name": "",
          "type": "tuple[]"
        }
      ],
      "stateMutability": "view",
      "type": "function",
      "constant": true
    },
    {
      "inputs": [
        {
          "internalType": "uint256",
          "name": "_proposalId",
          "type": "uint256"
        }
      ],
      "name": "getProposalDetails",
      "outputs": [
        {
          "components": [
            {
              "internalType": "string",
              "name": "description",
              "type": "string"
            },
            {
              "internalType": "uint256",
              "name": "voteCount",
              "type": "uint256"
            }
          ],
          "internalType": "struct Voting.Proposal",
          "name": "",
          "type": "tuple"
        }
      ],
      "stateMutability": "view",
      "type": "function",
      "constant": true
    },
    {
      "inputs": [],
      "name": "getProposalVoteCountEqualities",
      "outputs": [
        {
          "internalType": "uint256[]",
          "name": "",
          "type": "uint256[]"
        }
      ],
      "stateMutability": "view",
      "type": "function",
      "constant": true
    },
    {
      "inputs": [],
      "name": "getWinner",
      "outputs": [
        {
          "components": [
            {
              "internalType": "string",
              "name": "description",
              "type": "string"
            },
            {
              "internalType": "uint256",
              "name": "voteCount",
              "type": "uint256"
            }
          ],
          "internalType": "struct Voting.Proposal",
          "name": "",
          "type": "tuple"
        }
      ],
      "stateMutability": "view",
      "type": "function",
      "constant": true
    },
    {
      "inputs": [
        {
          "internalType": "address",
          "name": "_voterAddress",
          "type": "address"
        }
      ],
      "name": "addVoter",
      "outputs": [],
      "stateMutability": "nonpayable",
      "type": "function"
    },
    {
      "inputs": [],
      "name": "startProposalSession",
      "outputs": [],
      "stateMutability": "nonpayable",
      "type": "function"
    },
    {
      "inputs": [
        {
          "internalType": "string",
          "name": "_description",
          "type": "string"
        }
      ],
      "name": "submitProposal",
      "outputs": [],
      "stateMutability": "nonpayable",
      "type": "function"
    },
    {
      "inputs": [],
      "name": "endProposalSession",
      "outputs": [],
      "stateMutability": "nonpayable",
      "type": "function"
    },
    {
      "inputs": [],
      "name": "startVotingSession",
      "outputs": [],
      "stateMutability": "nonpayable",
      "type": "function"
    },
    {
      "inputs": [
        {
          "internalType": "uint256",
          "name": "_proposalId",
          "type": "uint256"
        }
      ],
      "name": "voteForProposal",
      "outputs": [],
      "stateMutability": "nonpayable",
      "type": "function"
    },
    {
      "inputs": [],
      "name": "endVotingSession",
      "outputs": [],
      "stateMutability": "nonpayable",
      "type": "function"
    },
    {
      "inputs": [],
      "name": "tallyingVotes",
      "outputs": [],
      "stateMutability": "nonpayable",
      "type": "function"
    }
  ],
  "bytecode": "0x60806040523480156200001157600080fd5b5062000032620000266200006560201b60201c565b6200006d60201b60201c565b60008060146101000a81548160ff021916908360058111156200005a576200005962000131565b5b021790555062000160565b600033905090565b60008060009054906101000a900473ffffffffffffffffffffffffffffffffffffffff169050816000806101000a81548173ffffffffffffffffffffffffffffffffffffffff021916908373ffffffffffffffffffffffffffffffffffffffff1602179055508173ffffffffffffffffffffffffffffffffffffffff168173ffffffffffffffffffffffffffffffffffffffff167f8be0079c531659141344cd1fd0a4f28419497f9722a3daafe3b4186f6b6457e060405160405180910390a35050565b7f4e487b7100000000000000000000000000000000000000000000000000000000600052602160045260246000fd5b61336e80620001706000396000f3fe608060405234801561001057600080fd5b50600436106101425760003560e01c80638e7ea5b2116100b8578063c64963c51161007c578063c64963c51461031b578063e06752c214610339578063ee74c67814610343578063f093b6c41461034d578063f2fde38b1461036b578063f4ab9adf1461038757610142565b80638e7ea5b21461029b57806396cbda35146102b9578063a7bfab16146102c3578063ba71bef0146102cd578063c19d93fb146102fd57610142565b806350d072fc1161010a57806350d072fc146101fd5780635141e5201461020757806362564c4814610237578063715018a61461025557806378905e2e1461025f5780638da5cb5b1461027d57610142565b8063045c6ce0146101475780630d15fd7714610163578063373d6d5e146101815780633b4d01a71461019d57806341ec7153146101cd575b600080fd5b610161600480360381019061015c9190611e18565b6103a3565b005b61016b610670565b6040516101789190611e54565b60405180910390f35b61019b60048036038101906101969190611fb5565b610676565b005b6101b760048036038101906101b29190611e18565b61089c565b6040516101c491906120d2565b60405180910390f35b6101e760048036038101906101e29190611e18565b610974565b6040516101f49190611e54565b60405180910390f35b610205610998565b005b610221600480360381019061021c9190612152565b610b5a565b60405161022e9190611e54565b60405180910390f35b61023f610cc4565b60405161024c919061227e565b60405180910390f35b61025d610dbf565b005b610267610e47565b604051610274919061235e565b60405180910390f35b610285610ed5565b604051610292919061238f565b60405180910390f35b6102a3610efe565b6040516102b091906120d2565b60405180910390f35b6102c1611093565b005b6102cb61120e565b005b6102e760048036038101906102e29190612152565b6113cf565b6040516102f49190612407565b60405180910390f35b610305611468565b6040516103129190612499565b60405180910390f35b61032361147b565b6040516103309190611e54565b60405180910390f35b610341611481565b005b61034b611644565b005b6103556117bf565b6040516103629190612563565b60405180910390f35b61038560048036038101906103809190612152565b611817565b005b6103a1600480360381019061039c9190612152565b61190f565b005b600360058111156103b7576103b6612422565b5b600060149054906101000a900460ff1660058111156103d9576103d8612422565b5b14610419576040517f08c379a000000000000000000000000000000000000000000000000000000000815260040161041090612608565b60405180910390fd5b6000600260003373ffffffffffffffffffffffffffffffffffffffff1673ffffffffffffffffffffffffffffffffffffffff16815260200190815260200160002090508060000160009054906101000a900460ff166104ad576040517f08c379a00000000000000000000000000000000000000000000000000000000081526004016104a49061269a565b60405180910390fd5b600015158160000160019054906101000a900460ff16151514610505576040517f08c379a00000000000000000000000000000000000000000000000000000000081526004016104fc90612706565b60405180910390fd5b60006003838154811061051b5761051a612726565b5b9060005260206000209060020201905082826001018190555060018260000160016101000a81548160ff02191690831515021790555080600101600081548092919061056690612784565b9190505550600060036005548154811061058357610582612726565b5b90600052602060002090600202019050600060045414156105aa5783600581905550610619565b8060010154826001015411156105d45783600581905550600660006105cf9190611ccb565b610618565b8060010154826001015414156106175760066005549080600181540180825580915050600190039060005260206000200160009091909190915055836005819055505b5b5b6004600081548092919061062c90612784565b91905055507f4d99b957a2bc29a30ebd96a7be8e68fe50a3c701db28a91436490b7d53870ca433856040516106629291906127cd565b60405180910390a150505050565b60045481565b6001600581111561068a57610689612422565b5b600060149054906101000a900460ff1660058111156106ac576106ab612422565b5b146106ec576040517f08c379a00000000000000000000000000000000000000000000000000000000081526004016106e390612868565b60405180910390fd5b600260003373ffffffffffffffffffffffffffffffffffffffff1673ffffffffffffffffffffffffffffffffffffffff16815260200190815260200160002060000160009054906101000a900460ff1661077b576040517f08c379a000000000000000000000000000000000000000000000000000000000815260040161077290612920565b60405180910390fd5b60006040518060200160405280600081525090508080519060200120828051906020012014156107e0576040517f08c379a00000000000000000000000000000000000000000000000000000000081526004016107d79061298c565b60405180910390fd5b6003604051806040016040528084815260200160008152509080600181540180825580915050600190039060005260206000209060020201600090919091909150600082015181600001908051906020019061083d929190611cec565b506020820151816001015550506000600160038054905061085e91906129ac565b90507f92e393e9b54e2f801d3ea4beb0c5e71a21cc34a5d34b77d0fb8a3aa1650dc18f8160405161088f9190611e54565b60405180910390a1505050565b6108a4611d72565b600382815481106108b8576108b7612726565b5b90600052602060002090600202016040518060400160405290816000820180546108e190612a0f565b80601f016020809104026020016040519081016040528092919081815260200182805461090d90612a0f565b801561095a5780601f1061092f5761010080835404028352916020019161095a565b820191906000526020600020905b81548152906001019060200180831161093d57829003601f168201915b505050505081526020016001820154815250509050919050565b6006818154811061098457600080fd5b906000526020600020016000915090505481565b6109a0611bff565b73ffffffffffffffffffffffffffffffffffffffff166109be610ed5565b73ffffffffffffffffffffffffffffffffffffffff1614610a14576040517f08c379a0000000000000000000000000000000000000000000000000000000008152600401610a0b90612a8d565b60405180910390fd5b6001808054905011610a5b576040517f08c379a0000000000000000000000000000000000000000000000000000000008152600401610a5290612af9565b60405180910390fd5b60006005811115610a6f57610a6e612422565b5b600060149054906101000a900460ff166005811115610a9157610a90612422565b5b14610ad1576040517f08c379a0000000000000000000000000000000000000000000000000000000008152600401610ac890612b8b565b60405180910390fd5b60008060149054906101000a900460ff1690506001600060146101000a81548160ff02191690836005811115610b0a57610b09612422565b5b02179055507f0a97a4ee45751e2abf3e4fc8946939630b11b371ea8ae39ccdc3056e98f5cc3f81600060149054906101000a900460ff16604051610b4f929190612bab565b60405180910390a150565b6000600260008373ffffffffffffffffffffffffffffffffffffffff1673ffffffffffffffffffffffffffffffffffffffff16815260200190815260200160002060000160009054906101000a900460ff16610beb576040517f08c379a0000000000000000000000000000000000000000000000000000000008152600401610be290612c46565b60405180910390fd5b600260008373ffffffffffffffffffffffffffffffffffffffff1673ffffffffffffffffffffffffffffffffffffffff16815260200190815260200160002060000160019054906101000a900460ff16610c7a576040517f08c379a0000000000000000000000000000000000000000000000000000000008152600401610c7190612cb2565b60405180910390fd5b600260008373ffffffffffffffffffffffffffffffffffffffff1673ffffffffffffffffffffffffffffffffffffffff168152602001908152602001600020600101549050919050565b60606003805480602002602001604051908101604052809291908181526020016000905b82821015610db65783829060005260206000209060020201604051806040016040529081600082018054610d1b90612a0f565b80601f0160208091040260200160405190810160405280929190818152602001828054610d4790612a0f565b8015610d945780601f10610d6957610100808354040283529160200191610d94565b820191906000526020600020905b815481529060010190602001808311610d7757829003601f168201915b5050505050815260200160018201548152505081526020019060010190610ce8565b50505050905090565b610dc7611bff565b73ffffffffffffffffffffffffffffffffffffffff16610de5610ed5565b73ffffffffffffffffffffffffffffffffffffffff1614610e3b576040517f08c379a0000000000000000000000000000000000000000000000000000000008152600401610e3290612a8d565b60405180910390fd5b610e456000611c07565b565b60606001805480602002602001604051908101604052809291908181526020018280548015610ecb57602002820191906000526020600020905b8160009054906101000a900473ffffffffffffffffffffffffffffffffffffffff1673ffffffffffffffffffffffffffffffffffffffff1681526020019060010190808311610e81575b5050505050905090565b60008060009054906101000a900473ffffffffffffffffffffffffffffffffffffffff16905090565b610f06611d72565b600580811115610f1957610f18612422565b5b600060149054906101000a900460ff166005811115610f3b57610f3a612422565b5b14610f7b576040517f08c379a0000000000000000000000000000000000000000000000000000000008152600401610f7290612d44565b60405180910390fd5b600060068054905014610fc3576040517f08c379a0000000000000000000000000000000000000000000000000000000008152600401610fba90612dd6565b60405180910390fd5b600360055481548110610fd957610fd8612726565b5b906000526020600020906002020160405180604001604052908160008201805461100290612a0f565b80601f016020809104026020016040519081016040528092919081815260200182805461102e90612a0f565b801561107b5780601f106110505761010080835404028352916020019161107b565b820191906000526020600020905b81548152906001019060200180831161105e57829003601f168201915b50505050508152602001600182015481525050905090565b61109b611bff565b73ffffffffffffffffffffffffffffffffffffffff166110b9610ed5565b73ffffffffffffffffffffffffffffffffffffffff161461110f576040517f08c379a000000000000000000000000000000000000000000000000000000000815260040161110690612a8d565b60405180910390fd5b6004600581111561112357611122612422565b5b600060149054906101000a900460ff16600581111561114557611144612422565b5b14611185576040517f08c379a000000000000000000000000000000000000000000000000000000000815260040161117c90612e68565b60405180910390fd5b60008060149054906101000a900460ff1690506005600060146101000a81548160ff021916908360058111156111be576111bd612422565b5b02179055507f0a97a4ee45751e2abf3e4fc8946939630b11b371ea8ae39ccdc3056e98f5cc3f81600060149054906101000a900460ff16604051611203929190612bab565b60405180910390a150565b611216611bff565b73ffffffffffffffffffffffffffffffffffffffff16611234610ed5565b73ffffffffffffffffffffffffffffffffffffffff161461128a576040517f08c379a000000000000000000000000000000000000000000000000000000000815260040161128190612a8d565b60405180910390fd5b6003600581111561129e5761129d612422565b5b600060149054906101000a900460ff1660058111156112c0576112bf612422565b5b14611300576040517f08c379a00000000000000000000000000000000000000000000000000000000081526004016112f790612efa565b60405180910390fd5b60006004541415611346576040517f08c379a000000000000000000000000000000000000000000000000000000000815260040161133d90612f66565b60405180910390fd5b60008060149054906101000a900460ff1690506004600060146101000a81548160ff0219169083600581111561137f5761137e612422565b5b02179055507f0a97a4ee45751e2abf3e4fc8946939630b11b371ea8ae39ccdc3056e98f5cc3f81600060149054906101000a900460ff166040516113c4929190612bab565b60405180910390a150565b6113d7611d8c565b600260008373ffffffffffffffffffffffffffffffffffffffff1673ffffffffffffffffffffffffffffffffffffffff1681526020019081526020016000206040518060600160405290816000820160009054906101000a900460ff161515151581526020016000820160019054906101000a900460ff161515151581526020016001820154815250509050919050565b600060149054906101000a900460ff1681565b60055481565b611489611bff565b73ffffffffffffffffffffffffffffffffffffffff166114a7610ed5565b73ffffffffffffffffffffffffffffffffffffffff16146114fd576040517f08c379a00000000000000000000000000000000000000000000000000000000081526004016114f490612a8d565b60405180910390fd5b600160038054905011611545576040517f08c379a000000000000000000000000000000000000000000000000000000000815260040161153c90612ff8565b60405180910390fd5b6001600581111561155957611558612422565b5b600060149054906101000a900460ff16600581111561157b5761157a612422565b5b146115bb576040517f08c379a00000000000000000000000000000000000000000000000000000000081526004016115b29061308a565b60405180910390fd5b60008060149054906101000a900460ff1690506002600060146101000a81548160ff021916908360058111156115f4576115f3612422565b5b02179055507f0a97a4ee45751e2abf3e4fc8946939630b11b371ea8ae39ccdc3056e98f5cc3f81600060149054906101000a900460ff16604051611639929190612bab565b60405180910390a150565b61164c611bff565b73ffffffffffffffffffffffffffffffffffffffff1661166a610ed5565b73ffffffffffffffffffffffffffffffffffffffff16146116c0576040517f08c379a00000000000000000000000000000000000000000000000000000000081526004016116b790612a8d565b60405180910390fd5b600260058111156116d4576116d3612422565b5b600060149054906101000a900460ff1660058111156116f6576116f5612422565b5b14611736576040517f08c379a000000000000000000000000000000000000000000000000000000000815260040161172d9061311c565b60405180910390fd5b60008060149054906101000a900460ff1690506003600060146101000a81548160ff0219169083600581111561176f5761176e612422565b5b02179055507f0a97a4ee45751e2abf3e4fc8946939630b11b371ea8ae39ccdc3056e98f5cc3f81600060149054906101000a900460ff166040516117b4929190612bab565b60405180910390a150565b6060600680548060200260200160405190810160405280929190818152602001828054801561180d57602002820191906000526020600020905b8154815260200190600101908083116117f9575b5050505050905090565b61181f611bff565b73ffffffffffffffffffffffffffffffffffffffff1661183d610ed5565b73ffffffffffffffffffffffffffffffffffffffff1614611893576040517f08c379a000000000000000000000000000000000000000000000000000000000815260040161188a90612a8d565b60405180910390fd5b600073ffffffffffffffffffffffffffffffffffffffff168173ffffffffffffffffffffffffffffffffffffffff161415611903576040517f08c379a00000000000000000000000000000000000000000000000000000000081526004016118fa906131ae565b60405180910390fd5b61190c81611c07565b50565b611917611bff565b73ffffffffffffffffffffffffffffffffffffffff16611935610ed5565b73ffffffffffffffffffffffffffffffffffffffff161461198b576040517f08c379a000000000000000000000000000000000000000000000000000000000815260040161198290612a8d565b60405180910390fd5b6000600581111561199f5761199e612422565b5b600060149054906101000a900460ff1660058111156119c1576119c0612422565b5b14611a01576040517f08c379a00000000000000000000000000000000000000000000000000000000081526004016119f89061321a565b60405180910390fd5b600073ffffffffffffffffffffffffffffffffffffffff168173ffffffffffffffffffffffffffffffffffffffff161415611a71576040517f08c379a0000000000000000000000000000000000000000000000000000000008152600401611a68906132ac565b60405180910390fd5b60001515600260008373ffffffffffffffffffffffffffffffffffffffff1673ffffffffffffffffffffffffffffffffffffffff16815260200190815260200160002060000160009054906101000a900460ff16151514611b07576040517f08c379a0000000000000000000000000000000000000000000000000000000008152600401611afe90613318565b60405180910390fd5b6001819080600181540180825580915050600190039060005260206000200160009091909190916101000a81548173ffffffffffffffffffffffffffffffffffffffff021916908373ffffffffffffffffffffffffffffffffffffffff1602179055506001600260008373ffffffffffffffffffffffffffffffffffffffff1673ffffffffffffffffffffffffffffffffffffffff16815260200190815260200160002060000160006101000a81548160ff0219169083151502179055507fb6be2187d059cc2a55fe29e0e503b566e1e0f8c8780096e185429350acffd3dd81604051611bf4919061238f565b60405180910390a150565b600033905090565b60008060009054906101000a900473ffffffffffffffffffffffffffffffffffffffff169050816000806101000a81548173ffffffffffffffffffffffffffffffffffffffff021916908373ffffffffffffffffffffffffffffffffffffffff1602179055508173ffffffffffffffffffffffffffffffffffffffff168173ffffffffffffffffffffffffffffffffffffffff167f8be0079c531659141344cd1fd0a4f28419497f9722a3daafe3b4186f6b6457e060405160405180910390a35050565b5080546000825590600052602060002090810190611ce99190611db1565b50565b828054611cf890612a0f565b90600052602060002090601f016020900481019282611d1a5760008555611d61565b82601f10611d3357805160ff1916838001178555611d61565b82800160010185558215611d61579182015b82811115611d60578251825591602001919060010190611d45565b5b509050611d6e9190611db1565b5090565b604051806040016040528060608152602001600081525090565b6040518060600160405280600015158152602001600015158152602001600081525090565b5b80821115611dca576000816000905550600101611db2565b5090565b6000604051905090565b600080fd5b600080fd5b6000819050919050565b611df581611de2565b8114611e0057600080fd5b50565b600081359050611e1281611dec565b92915050565b600060208284031215611e2e57611e2d611dd8565b5b6000611e3c84828501611e03565b91505092915050565b611e4e81611de2565b82525050565b6000602082019050611e696000830184611e45565b92915050565b600080fd5b600080fd5b6000601f19601f8301169050919050565b7f4e487b7100000000000000000000000000000000000000000000000000000000600052604160045260246000fd5b611ec282611e79565b810181811067ffffffffffffffff82111715611ee157611ee0611e8a565b5b80604052505050565b6000611ef4611dce565b9050611f008282611eb9565b919050565b600067ffffffffffffffff821115611f2057611f1f611e8a565b5b611f2982611e79565b9050602081019050919050565b82818337600083830152505050565b6000611f58611f5384611f05565b611eea565b905082815260208101848484011115611f7457611f73611e74565b5b611f7f848285611f36565b509392505050565b600082601f830112611f9c57611f9b611e6f565b5b8135611fac848260208601611f45565b91505092915050565b600060208284031215611fcb57611fca611dd8565b5b600082013567ffffffffffffffff811115611fe957611fe8611ddd565b5b611ff584828501611f87565b91505092915050565b600081519050919050565b600082825260208201905092915050565b60005b8381101561203857808201518184015260208101905061201d565b83811115612047576000848401525b50505050565b600061205882611ffe565b6120628185612009565b935061207281856020860161201a565b61207b81611e79565b840191505092915050565b61208f81611de2565b82525050565b600060408301600083015184820360008601526120b2828261204d565b91505060208301516120c76020860182612086565b508091505092915050565b600060208201905081810360008301526120ec8184612095565b905092915050565b600073ffffffffffffffffffffffffffffffffffffffff82169050919050565b600061211f826120f4565b9050919050565b61212f81612114565b811461213a57600080fd5b50565b60008135905061214c81612126565b92915050565b60006020828403121561216857612167611dd8565b5b60006121768482850161213d565b91505092915050565b600081519050919050565b600082825260208201905092915050565b6000819050602082019050919050565b600060408301600083015184820360008601526121c8828261204d565b91505060208301516121dd6020860182612086565b508091505092915050565b60006121f483836121ab565b905092915050565b6000602082019050919050565b60006122148261217f565b61221e818561218a565b9350836020820285016122308561219b565b8060005b8581101561226c578484038952815161224d85826121e8565b9450612258836121fc565b925060208a01995050600181019050612234565b50829750879550505050505092915050565b600060208201905081810360008301526122988184612209565b905092915050565b600081519050919050565b600082825260208201905092915050565b6000819050602082019050919050565b6122d581612114565b82525050565b60006122e783836122cc565b60208301905092915050565b6000602082019050919050565b600061230b826122a0565b61231581856122ab565b9350612320836122bc565b8060005b8381101561235157815161233888826122db565b9750612343836122f3565b925050600181019050612324565b5085935050505092915050565b600060208201905081810360008301526123788184612300565b905092915050565b61238981612114565b82525050565b60006020820190506123a46000830184612380565b92915050565b60008115159050919050565b6123bf816123aa565b82525050565b6060820160008201516123db60008501826123b6565b5060208201516123ee60208501826123b6565b5060408201516124016040850182612086565b50505050565b600060608201905061241c60008301846123c5565b92915050565b7f4e487b7100000000000000000000000000000000000000000000000000000000600052602160045260246000fd5b6006811061246257612461612422565b5b50565b600081905061247382612451565b919050565b600061248382612465565b9050919050565b61249381612478565b82525050565b60006020820190506124ae600083018461248a565b92915050565b600081519050919050565b600082825260208201905092915050565b6000819050602082019050919050565b60006124ec8383612086565b60208301905092915050565b6000602082019050919050565b6000612510826124b4565b61251a81856124bf565b9350612525836124d0565b8060005b8381101561255657815161253d88826124e0565b9750612548836124f8565b925050600181019050612529565b5085935050505092915050565b6000602082019050818103600083015261257d8184612505565b905092915050565b600082825260208201905092915050565b7f596f752063616e206e6f206c6f6e67657220766f746520666f7220612070726f60008201527f706f73616c2e0000000000000000000000000000000000000000000000000000602082015250565b60006125f2602683612585565b91506125fd82612596565b604082019050919050565b60006020820190508181036000830152612621816125e5565b9050919050565b7f596f7520617265206e6f74207265676973746572656420666f7220766f74696e60008201527f672e000000000000000000000000000000000000000000000000000000000000602082015250565b6000612684602283612585565b915061268f82612628565b604082019050919050565b600060208201905081810360008301526126b381612677565b9050919050565b7f596f752063616e6e6f7420766f74652074776963652e00000000000000000000600082015250565b60006126f0601683612585565b91506126fb826126ba565b602082019050919050565b6000602082019050818103600083015261271f816126e3565b9050919050565b7f4e487b7100000000000000000000000000000000000000000000000000000000600052603260045260246000fd5b7f4e487b7100000000000000000000000000000000000000000000000000000000600052601160045260246000fd5b600061278f82611de2565b91507fffffffffffffffffffffffffffffffffffffffffffffffffffffffffffffffff8214156127c2576127c1612755565b5b600182019050919050565b60006040820190506127e26000830185612380565b6127ef6020830184611e45565b9392505050565b7f596f752063616e206e6f206c6f6e676572207375626d697420612070726f706f60008201527f73616c2e00000000000000000000000000000000000000000000000000000000602082015250565b6000612852602483612585565b915061285d826127f6565b604082019050919050565b6000602082019050818103600083015261288181612845565b9050919050565b7f5375626d69742064656e6965642062656361757365207061727469636970616e60008201527f7420646f6573206e6f742062656c6f6e6720746f20726567697374657265642060208201527f766f746572732e00000000000000000000000000000000000000000000000000604082015250565b600061290a604783612585565b915061291582612888565b606082019050919050565b60006020820190508181036000830152612939816128fd565b9050919050565b7f50726f706f73616c2063616e277420626520656d7074792e0000000000000000600082015250565b6000612976601883612585565b915061298182612940565b602082019050919050565b600060208201905081810360008301526129a581612969565b9050919050565b60006129b782611de2565b91506129c283611de2565b9250828210156129d5576129d4612755565b5b828203905092915050565b7f4e487b7100000000000000000000000000000000000000000000000000000000600052602260045260246000fd5b60006002820490506001821680612a2757607f821691505b60208210811415612a3b57612a3a6129e0565b5b50919050565b7f4f776e61626c653a2063616c6c6572206973206e6f7420746865206f776e6572600082015250565b6000612a77602083612585565b9150612a8282612a41565b602082019050919050565b60006020820190508181036000830152612aa681612a6a565b9050919050565b7f566f74696e672073797374656d206e65656420766f7465727320210000000000600082015250565b6000612ae3601b83612585565b9150612aee82612aad565b602082019050919050565b60006020820190508181036000830152612b1281612ad6565b9050919050565b7f596f752063616e206e6f206c6f6e676572207374617274207468652070726f7060008201527f6f73616c2073657373696f6e2e00000000000000000000000000000000000000602082015250565b6000612b75602d83612585565b9150612b8082612b19565b604082019050919050565b60006020820190508181036000830152612ba481612b68565b9050919050565b6000604082019050612bc0600083018561248a565b612bcd602083018461248a565b9392505050565b7f54686973206164647265737320646f6573206e6f742062656c6f6e6720746f2060008201527f7265676973746572656420766f746572732e0000000000000000000000000000602082015250565b6000612c30603283612585565b9150612c3b82612bd4565b604082019050919050565b60006020820190508181036000830152612c5f81612c23565b9050919050565b7f566f7465206e6f74207375626d6974746564207965742e000000000000000000600082015250565b6000612c9c601783612585565b9150612ca782612c66565b602082019050919050565b60006020820190508181036000830152612ccb81612c8f565b9050919050565b7f5468652077696e6e696e672070726f706f73616c206973206e6f74206465666960008201527f6e6564207965742e000000000000000000000000000000000000000000000000602082015250565b6000612d2e602883612585565b9150612d3982612cd2565b604082019050919050565b60006020820190508181036000830152612d5d81612d21565b9050919050565b7f546865726520697320616e20657175616c697479206265747765656e20736f6d60008201527f652070726f706f73616c732e0000000000000000000000000000000000000000602082015250565b6000612dc0602c83612585565b9150612dcb82612d64565b604082019050919050565b60006020820190508181036000830152612def81612db3565b9050919050565b7f596f752063616e20737461727420796574207461696c6c696e6720746865207660008201527f6f7465732e000000000000000000000000000000000000000000000000000000602082015250565b6000612e52602583612585565b9150612e5d82612df6565b604082019050919050565b60006020820190508181036000830152612e8181612e45565b9050919050565b7f596f752063616e206e6f206c6f6e67657220656e642074686520766f74696e6760008201527f2073657373696f6e2e0000000000000000000000000000000000000000000000602082015250565b6000612ee4602983612585565b9150612eef82612e88565b604082019050919050565b60006020820190508181036000830152612f1381612ed7565b9050919050565b7f4e6f626f64792068617320766f746564207965742e0000000000000000000000600082015250565b6000612f50601583612585565b9150612f5b82612f1a565b602082019050919050565b60006020820190508181036000830152612f7f81612f43565b9050919050565b7f566f74696e672073797374656d206e6565647320322070726f706f73616c732060008201527f6174206c65617374202100000000000000000000000000000000000000000000602082015250565b6000612fe2602a83612585565b9150612fed82612f86565b604082019050919050565b6000602082019050818103600083015261301181612fd5565b9050919050565b7f596f752063616e206e6f206c6f6e67657220656e64207468652070726f706f7360008201527f616c2073657373696f6e2e000000000000000000000000000000000000000000602082015250565b6000613074602b83612585565b915061307f82613018565b604082019050919050565b600060208201905081810360008301526130a381613067565b9050919050565b7f596f752063616e206e6f206c6f6e6765722073746172742074686520766f746960008201527f6e672073657373696f6e2e000000000000000000000000000000000000000000602082015250565b6000613106602b83612585565b9150613111826130aa565b604082019050919050565b60006020820190508181036000830152613135816130f9565b9050919050565b7f4f776e61626c653a206e6577206f776e657220697320746865207a65726f206160008201527f6464726573730000000000000000000000000000000000000000000000000000602082015250565b6000613198602683612585565b91506131a38261313c565b604082019050919050565b600060208201905081810360008301526131c78161318b565b9050919050565b7f596f752063616e206e6f206c6f6e6765722061646420766f746572732e000000600082015250565b6000613204601d83612585565b915061320f826131ce565b602082019050919050565b60006020820190508181036000830152613233816131f7565b9050919050565b7f596f75206d7573742061646420612076616c696420455448206164647265737360008201527f2e00000000000000000000000000000000000000000000000000000000000000602082015250565b6000613296602183612585565b91506132a18261323a565b604082019050919050565b600060208201905081810360008301526132c581613289565b9050919050565b7f566f74657220616c72656164792061646465642e000000000000000000000000600082015250565b6000613302601483612585565b915061330d826132cc565b602082019050919050565b60006020820190508181036000830152613331816132f5565b905091905056fea26469706673582212200006201a7ac973ff06173eca0a20661a225763f2e4643d5a2e2f3ee2e333d70e64736f6c634300080a0033",
  "immutableReferences": {},
  "source": "//SPDX-License-Identifier: Unlicense\npragma solidity ^0.8.10;\n\nimport \"./Ownable.sol\";\n\n/// @title A \"one shot\" voting contract\n/// @author Adrien G\n/// @notice You can use this contract for test purposes only\n/// @dev All function calls are currently implemented without side effects\n/// @custom:educational This is an educational contract.\ncontract Voting is Ownable {\n    struct Voter {\n        bool isRegistered;\n        bool hasVoted;\n        uint256 votedProposalId;\n    }\n\n    struct Proposal {\n        string description;\n        uint256 voteCount;\n    }\n\n    WorkflowStatus public state;\n\n    address[] private whiteListedVoters;\n    mapping(address => Voter) private addressToVoter;\n\n    Proposal[] private proposals;\n\n    uint256 public totalVotes;\n    uint256 public winningProposalId;\n    uint256[] public proposalVoteCountEqualities;\n\n    event VoterRegistered(address voterAddress);\n    event WorkflowStatusChange(\n        WorkflowStatus previousStatus,\n        WorkflowStatus newStatus\n    );\n    event ProposalRegistered(uint256 proposalId);\n    event Voted(address voter, uint256 proposalId);\n\n    enum WorkflowStatus {\n        RegisteringVoters,\n        ProposalsRegistrationStarted,\n        ProposalsRegistrationEnded,\n        VotingSessionStarted,\n        VotingSessionEnded,\n        VotesTallied\n    }\n\n    constructor() {\n        state = WorkflowStatus.RegisteringVoters;\n    }\n\n    /// @notice Return the complete list of registred voter addresses\n    function getWhitelistedVoters() public view returns (address[] memory) {\n        return whiteListedVoters;\n    }\n\n    /// @notice Return the voter details\n    /// @param voterAddress The desired voter address\n    function getVoterDetails(address voterAddress)\n        public\n        view\n        returns (Voter memory)\n    {\n        return addressToVoter[voterAddress];\n    }\n\n    /// @notice Return a voter vote\n    /// @param voterAddress The desired voter address\n    /// @return Proposal id\n    function getVoterVote(address voterAddress) public view returns (uint256) {\n        require(\n            addressToVoter[voterAddress].isRegistered,\n            \"This address does not belong to registered voters.\"\n        );\n\n        require(\n            addressToVoter[voterAddress].hasVoted,\n            \"Vote not submitted yet.\"\n        );\n\n        return addressToVoter[voterAddress].votedProposalId;\n    }\n\n    /// @notice Return the complete list of proposals\n    function getProposals() public view returns (Proposal[] memory) {\n        return proposals;\n    }\n\n    /// @notice Return proposal details\n    /// @param _proposalId The desired proposal identifier\n    function getProposalDetails(uint256 _proposalId)\n        public\n        view\n        returns (Proposal memory)\n    {\n        return proposals[_proposalId];\n    }\n\n    /// @notice Return proposal ids where vote count is the same than the winner\n    /// @dev if the array is not empty, it means there an equality after the vote tallying\n    function getProposalVoteCountEqualities()\n        public\n        view\n        returns (uint256[] memory)\n    {\n        return proposalVoteCountEqualities;\n    }\n\n    /// @notice Return winning proposal details\n    function getWinner() public view returns (Proposal memory) {\n        require(\n            state == WorkflowStatus.VotesTallied,\n            \"The winning proposal is not defined yet.\"\n        );\n\n        require(\n            proposalVoteCountEqualities.length == 0,\n            \"There is an equality between some proposals.\"\n        );\n\n        return proposals[winningProposalId];\n    }\n\n    function addVoter(address _voterAddress) public onlyOwner {\n        require(\n            state == WorkflowStatus.RegisteringVoters,\n            \"You can no longer add voters.\"\n        );\n\n        require(\n            _voterAddress != address(0),\n            \"You must add a valid ETH address.\"\n        );\n\n        require(\n            addressToVoter[_voterAddress].isRegistered == false,\n            \"Voter already added.\"\n        );\n\n        whiteListedVoters.push(_voterAddress);\n        addressToVoter[_voterAddress].isRegistered = true;\n\n        emit VoterRegistered(_voterAddress);\n    }\n\n    function startProposalSession() public onlyOwner {\n        require(whiteListedVoters.length > 1, \"Voting system need voters !\");\n        require(\n            state == WorkflowStatus.RegisteringVoters,\n            \"You can no longer start the proposal session.\"\n        );\n\n        WorkflowStatus oldStatus = state;\n        state = WorkflowStatus.ProposalsRegistrationStarted;\n\n        emit WorkflowStatusChange(oldStatus, state);\n    }\n\n    function submitProposal(string memory _description) public {\n        require(\n            state == WorkflowStatus.ProposalsRegistrationStarted,\n            \"You can no longer submit a proposal.\"\n        );\n\n        require(\n            addressToVoter[msg.sender].isRegistered,\n            \"Submit denied because participant does not belong to registered voters.\"\n        );\n\n        // https://ethereum.stackexchange.com/questions/30912/how-to-compare-strings-in-solidity/82739\n        string memory empty = \"\";\n        require(\n            keccak256(bytes(_description)) != keccak256(bytes(empty)),\n            \"Proposal can't be empty.\"\n        );\n\n        proposals.push(Proposal(_description, 0));\n        uint256 proposalId = proposals.length - 1;\n\n        emit ProposalRegistered(proposalId);\n    }\n\n    function endProposalSession() public onlyOwner {\n        require(\n            proposals.length > 1,\n            \"Voting system needs 2 proposals at least !\"\n        );\n        require(\n            state == WorkflowStatus.ProposalsRegistrationStarted,\n            \"You can no longer end the proposal session.\"\n        );\n\n        WorkflowStatus oldStatus = state;\n        state = WorkflowStatus.ProposalsRegistrationEnded;\n\n        emit WorkflowStatusChange(oldStatus, state);\n    }\n\n    function startVotingSession() public onlyOwner {\n        require(\n            state == WorkflowStatus.ProposalsRegistrationEnded,\n            \"You can no longer start the voting session.\"\n        );\n\n        WorkflowStatus oldStatus = state;\n        state = WorkflowStatus.VotingSessionStarted;\n\n        emit WorkflowStatusChange(oldStatus, state);\n    }\n\n    function voteForProposal(uint256 _proposalId) public {\n        require(\n            state == WorkflowStatus.VotingSessionStarted,\n            \"You can no longer vote for a proposal.\"\n        );\n\n        Voter storage currentVoter = addressToVoter[msg.sender];\n\n        require(\n            currentVoter.isRegistered,\n            \"You are not registered for voting.\"\n        );\n\n        require(currentVoter.hasVoted == false, \"You cannot vote twice.\");\n\n        Proposal storage votedProposal = proposals[_proposalId];\n\n        currentVoter.votedProposalId = _proposalId;\n        currentVoter.hasVoted = true;\n\n        votedProposal.voteCount++;\n\n        Proposal storage tempWinningProposal = proposals[winningProposalId];\n\n        // Edge case for first vote\n        if (totalVotes == 0) {\n            winningProposalId = _proposalId;\n        } else if (votedProposal.voteCount > tempWinningProposal.voteCount) {\n            winningProposalId = _proposalId;\n\n            delete proposalVoteCountEqualities;\n        } else if (votedProposal.voteCount == tempWinningProposal.voteCount) {\n            // Handle potental vote equality\n            proposalVoteCountEqualities.push(winningProposalId); // Store old winner\n            winningProposalId = _proposalId; // Update new winner\n        }\n\n        totalVotes++;\n\n        emit Voted(msg.sender, _proposalId);\n    }\n\n    function endVotingSession() public onlyOwner {\n        require(\n            state == WorkflowStatus.VotingSessionStarted,\n            \"You can no longer end the voting session.\"\n        );\n\n        require(totalVotes != 0, \"Nobody has voted yet.\");\n\n        WorkflowStatus oldStatus = state;\n        state = WorkflowStatus.VotingSessionEnded;\n\n        emit WorkflowStatusChange(oldStatus, state);\n    }\n\n    // Determiner le gagnant au moment du vote\n    function tallyingVotes() public onlyOwner {\n        require(\n            state == WorkflowStatus.VotingSessionEnded,\n            \"You can start yet tailling the votes.\"\n        );\n\n        WorkflowStatus oldStatus = state;\n        state = WorkflowStatus.VotesTallied;\n\n        emit WorkflowStatusChange(oldStatus, state);\n    }\n}\n",
  "sourcePath": "/Users/adrien/Alyra/voting-dapp/contracts/Voting.sol",
  "compiler": {
    "name": "solc",
    "version": "0.8.10+commit.fc410830.Emscripten.clang"
  },
  "schemaVersion": "3.4.3",
  "updatedAt": "2022-01-12T13:30:39.275Z",
  "networkType": "ethereum",
  "devdoc": {
    "author": "Adrien G",
    "custom:educational": "This is an educational contract.",
    "details": "All function calls are currently implemented without side effects",
    "kind": "dev",
    "methods": {
      "getProposalDetails(uint256)": {
        "params": {
          "_proposalId": "The desired proposal identifier"
        }
      },
      "getProposalVoteCountEqualities()": {
        "details": "if the array is not empty, it means there an equality after the vote tallying"
      },
      "getVoterDetails(address)": {
        "params": {
          "voterAddress": "The desired voter address"
        }
      },
      "getVoterVote(address)": {
        "params": {
          "voterAddress": "The desired voter address"
        },
        "returns": {
          "_0": "Proposal id"
        }
      },
      "owner()": {
        "details": "Returns the address of the current owner."
      },
      "renounceOwnership()": {
        "details": "Leaves the contract without owner. It will not be possible to call `onlyOwner` functions anymore. Can only be called by the current owner. NOTE: Renouncing ownership will leave the contract without an owner, thereby removing any functionality that is only available to the owner."
      },
      "transferOwnership(address)": {
        "details": "Transfers ownership of the contract to a new account (`newOwner`). Can only be called by the current owner."
      }
    },
    "title": "A \"one shot\" voting contract",
    "version": 1
  },
  "userdoc": {
    "kind": "user",
    "methods": {
      "getProposalDetails(uint256)": {
        "notice": "Return proposal details"
      },
      "getProposalVoteCountEqualities()": {
        "notice": "Return proposal ids where vote count is the same than the winner"
      },
      "getProposals()": {
        "notice": "Return the complete list of proposals"
      },
      "getVoterDetails(address)": {
        "notice": "Return the voter details"
      },
      "getVoterVote(address)": {
        "notice": "Return a voter vote"
      },
      "getWhitelistedVoters()": {
        "notice": "Return the complete list of registred voter addresses"
      },
      "getWinner()": {
        "notice": "Return winning proposal details"
      }
    },
    "notice": "You can use this contract for test purposes only",
    "version": 1
  }
}